:020000040002F8
:10600000B85C0020C1630200C9630200CB630200D8
:10601000CD630200CF630200D163020000000000E4
:10602000000000000000000000000000D363020038
:10603000D563020000000000D7630200D9630200AC
:1060400049660200DB630200F1690200DB630200C3
:10605000DB630200DB6302008D650200DB6302008C
:10606000DB630200DB630200DB630200DB63020030
:10607000DB630200DB630200DB630200DB63020020
:10608000DB6302009D660200DB630200DB6302004B
:10609000DB630200DB63020041670200DB63020096
:1060A000DB630200DB630200DB630200DB630200F0
:1060B000DB630200DB630200000000000000000060
:1060C000DB630200DB630200DB630200DB630200D0
:1060D000DB630200DB630200DB6302000000000000
:1060E00000000000000000000000000000000000B0
:1060F00000000000000000000000000000000000A0
:10610000000000000000000000000000000000008F
:10611000000000000000000000000000000000007F
:10612000000000000000000000000000000000006F
:10613000000000000000000000000000000000005F
:10614000000000000000000000000000000000004F
:10615000000000000000000000000000000000003F
:10616000000000000000000000000000000000002F
:10617000000000000000000000000000000000001F
:10618000000000000000000000000000000000000F
:1061900000000000000000000000000000000000FF
:1061A00000000000000000000000000000000000EF
:1061B00000000000000000000000000000000000DF
:1061C00000000000000000000000000000000000CF
:1061D00000000000000000000000000000000000BF
:1061E00000000000000000000000000000000000AF
:1061F000000000000000000000000000000000009F
:10620000DFF80CD000F084F900480047E1C7020035
:10621000B85C002030B450E8012F93B2C489234405
:106220008489A34228BF1B1B0489A34202BFBFF37A
:106230002F8F002007E0C3EA020340E80134002C5E
:10624000E9D14FF001000A6030BC704750E8012FDF
:10625000C2EA024240E801210029F7D1704730B478
:1062600050E8022F1FFAA2F3C488A34202BFBFF373
:106270002F8F00200DE0C48923448489A34228BFC6
:106280001B1BC2EA034340E80234002CE8D14FF064
:1062900001000A6030BC704750E8022FC2EA224277
:1062A00040E802210029F7D17047034653E8022F46
:1062B000D988B2EB324F4FF0000017BF92B241EADB
:1062C000014142EA014104E05A68B2EB324F08BF93
:1062D000012043E80212002AE8D1704730B4044696
:1062E00054E8000F0D4644E80053002BF8D1156028
:1062F00030BC704730B4044654E8000F40EA010552
:1063000044E80053002BF7D1156030BC704730B41F
:10631000044654E8000F00EA010544E80053002B4E
:10632000F7D1156030BC704730B4044654E8000F14
:1063300080EA010544E80053002BF7D1156030BC1A
:10634000704730B4044654E8000F00EB010544E800
:106350000053002BF7D1156030BC704730B40446B1
:1063600054E8000FA0EB010544E80053002BF7D1DF
:10637000156030BC704770B404464FF0000054E81C
:10638000006F0D68AE4207BF44E80023012044E8D7
:1063900000630E60002B1CBF0020F0E770BC70474C
:1063A00030B4044654E8000F88422CBF451A054615
:1063B00044E80053002BF5D1156030BC7047000055
:1063C0000648804706480047FEE7FEE7FEE7FEE78F
:1063D000FEE7FEE7FEE7FEE7FEE7FEE7596702009D
:1063E000016202002DE9F05F0546002092469B46BF
:1063F00088460646814640241BE0284641464746DB
:10640000224600F074F853465A46C01A914110D300
:1064100011461846224600F016F82D1A67EB0108BF
:106420004F4622460120002100F00DF817EB00092D
:106430004E41201EA4F10104DFDC484631462A46C5
:106440004346BDE8F09F202A04DB203A00FA02F11F
:10645000002070479140C2F1200320FA03F3194352
:1064600090407047004870470C68030040EA010301
:106470009B0703D009E008C9121F08C0042AFAD2FA
:1064800003E011F8013B00F8013B521EF9D27047BE
:10649000D2B201E000F8012B491EFBD27047002266
:1064A000F6E710B513460A4604461946FFF7F0FF13
:1064B000204610BD421C10F8011B0029FBD1801A98
:1064C000704730B504460020034600E05B1C934251
:1064D00003D2E05CCD5C401BF8D030BD034611F820
:1064E000012B00F8012B002AF9D118467047202A09
:1064F00004DB203A21FA02F00021704721FA02F36E
:10650000D040C2F120029140084319467047000074
:10651000064C074D06E0E06840F0010394E80700F0
:1065200098471034AC42F6D3FFF76EFE5C8103004F
:106530007C81030070B58C1810F8015B15F007031F
:1065400001D110F8013B2A1106D110F8012B03E00C
:1065500010F8016B01F8016B5B1EF9D12B0705D414
:106560000023521E0DD401F8013BFAE710F8013B5D
:10657000CB1A921C03E013F8015B01F8015B521E79
:10658000F9D5A142D8D3002070BD00002DE9F84F05
:106590000026002000904FF480770125002410E0B1
:1065A000384607F02BFD40B100BF25480068284061
:1065B00018B1384607F014FD2E436D00381D87B220
:1065C000641C082CECD34FF4BE7007F017FD50B1DB
:1065D0004FF4BE7007F004FD46F000466A46012104
:1065E000002007F08DFCF0B210B3012500241DE05F
:1065F00005EA0600C0B100BF124850F82400C0F3FD
:106600000420814600BF0F4850F82400C0F3014029
:106610008246204602F0CEFE8046B8F1000F02D03E
:1066200051464846C04700BF6D00641C082CDFD3AC
:1066300006F0004010B168460CF00EFBBDE8F88F84
:10664000046300401065004010B54FF4807006F000
:1066500010FF80B14FF4807006F014FF012006F0A7
:106660001BFF0D48407930B901200B49487108469D
:106670000168002088474FF4827006F0FAFE50B19E
:106680004FF4827006F0FEFE022006F005FF02487D
:1066900001680120884710BD7425002010B5034A09
:1066A0001068034A1168884710BD0000C825002003
:1066B000C425002010B500F0A3F910BD2DE9F04766
:1066C000074688461646C24607EB47011B4800EBC3
:1066D000C109D9F8140020B1012811D0022826D10F
:1066E0001EE0484600F0C4F90546B54201D2002438
:1066F00005E0344632465146484600F000FA18E0BC
:10670000484600F0B5F90546B54201D2284600E0FA
:106710003046044622465146484600F0F0F908E06B
:1067200032465146484600F0B1F9044601E00024E3
:1067300000BF00BF2046BDE8F0870000483A0020B7
:1067400010B508F02BFC10BD0148024908607047E5
:106750000090D0039026002010B506F051FA28B121
:1067600092480088C0F304209149086006F0A0FA1E
:1067700010B190489049486706F0D6FA30B18B487E
:10678000E0380068C0F342308C49086006F0F8FA3F
:1067900028B18B48006820F080708949086006F0B5
:1067A0000DFB48B10020874908604FF08041C1F8D7
:1067B00010018249091F086006F02CFB18B1032064
:1067C0007E496431086006F043FB68B105207E49CC
:1067D000086001207C497831086000207A4908313E
:1067E00008603F20091F086006F050FB002855D0C4
:1067F0006E48E0300068754908606C48E430006815
:10680000091D08606948E8300068091D086067488C
:10681000EC300068091D08606448F0300068091D0C
:1068200008606248F4300068091D08605F48F8306D
:1068300000686649203108605C48FC300068091D2A
:10684000086063480068091D08606148001D006811
:10685000091D08605E4808300068091D08605C4832
:106860000C300068091D086059481030006857490D
:1068700040310860564814300068091D08605448CB
:1068800018300068091D086051481C300068091D57
:1068900008604F4820300068091D086006F084F940
:1068A00030B14248CC38006800F04F0049490860D8
:1068B00006F0D2F940B14848006800F0010018B174
:1068C0006FF001004449086006F010FA28B143480F
:1068D000006840F4806041490860394874380068B5
:1068E00040F4700036497439086000BF00BF00BF33
:1068F000BFF34F8F00BF00BF00BF00BF00BF00BF8E
:10690000BFF36F8F00BF00BF00BF3548006800F0C5
:10691000004028B93248001D006800F00040E8B38C
:1069200001203049086000BF2F4800680028FBD0D4
:1069300015202B49086000BF2B4800680028FBD0B9
:1069400015212748001D016000BF27480068002866
:10695000FBD000202349086000BF234800680028BE
:10696000FBD000BF00BF00BF00BF00BFBFF34F8F11
:1069700000BF00BF00BF1248F038006800F4E060BC
:106980001A490843001D0E49F039086000BF00BFD6
:1069900000BFBFF34F8F00BF00BF00E003E000BFA8
:1069A00000BF00BFFDE7FFF7CFFE10BD24030010BE
:1069B000403501400DF0ADBA00C007403C05004035
:1069C000FCED00E00C0100401056004020C50040E6
:1069D00024040010E40E0040000400403C17004076
:1069E0000012001004E5014000E401400000FA0537
:1069F00010B502490868804710BD00007C250020C2
:106A000010B5124C02202061606111A0A0611349F1
:106A1000E1614FF4007121620021A1626162E162D3
:106A20000BA0A0640E49E164102121650021A1653D
:106A30006165E1650BA1E01DFFF750FD0AA120464D
:106A4000FFF74CFD2020A07110BD0000303A00205F
:106A50005465726D696E616C00000000A83A0020F8
:106A6000A83C00205254540053454747455200006B
:106A700010B501460A69CB689A4204D88C68641E36
:106A8000E41AA01801E0D41A601E10BD2DE9F047E9
:106A90000446894617464FF0000AE56800BFD4F85F
:106AA0001080A84503D9A8EB0500461E04E0A5EB1D
:106AB0000800401CA1680E1AA068401BB04201D912
:106AC000304601E0A068401B0646BE4201D2304677
:106AD00000E0384606466168481932464946FFF7E5
:106AE000C5FCB244B144BF1B3544A068A84200D1E4
:106AF0000025E560002FD2D15046BDE8F0872DE992
:106B0000F047044689461546E668A068871BAF42F1
:106B100008D9616888192A464946FFF7A7FC701909
:106B2000E06010E0B8466168881942464946FFF7C0
:106B30009DFCA5EB070809EB070142466068FFF7DB
:106B400095FCC4F80C80BDE8F08702E008C8121F6D
:106B500008C1002AFAD170477047002001E001C146
:106B6000121F002AFBD170470146202908DA0120B4
:106B700088400A4A104008B1012070470020FCE715
:106B8000402909DAA1F12000012202FA00F008B13F
:106B90000120F2E70020F0E70120EEE7FC06FFBD50
:106BA00000BFEFF31081084672B67047F8B505468E
:106BB0000E46C6B9694628460BF09EF8044643F2D5
:106BC00002018C4208D000BF274627B100BF3846DB
:106BD00000F0D4FA00BF00BF9DF80000C0F34000F1
:106BE00000B1F8BD00BF002128460BF097F804461D
:106BF000002C5CD0112C5AD00D2C21D12D492E4ABD
:106C0000891AC908022242EA01402A462B4907F0A4
:106C1000FDFC1321284676DF0446002C47D0204691
:106C200008F0AAFA07462349234A891AC90802220A
:106C300042EA01402B463A4621A107F0F3FC36E038
:106C40000B2C0BD11B491C4A891AC908022242EAA3
:106C500001402A46284907F0D9FC28E043F2020007
:106C600084420BD11349144A891AC908022242EA04
:106C700001402A46214907F0C9FC18E0204608F0E7
:106C80007BFA07460B490C4A891AC908012242EAD5
:106C900001402B463A461AA107F0C4FC00BF274624
:106CA00027B100BF384600F069FA00BF00BF00BF3F
:106CB00097E70000C48103008C810300B86F0300D4
:106CC00073645F626C655F6761705F646973636F53
:106CD0006E6E65637428292072657475726E6564C2
:106CE000202573206F6E20636F6E6E5F68616E6427
:106CF0006C652025642E0000787003002C70030062
:106D0000417373657274696E672E20706D5F636F77
:106D10006E6E5F7365637572652829207265747580
:106D2000726E6564202573206F6E20636F6E6E5FD8
:106D300068616E646C652025642E000070B50546A0
:106D40000C4605B10CB9002070BD287840082178A8
:106D5000B0EB510F01D00020F6E70622611C681C41
:106D6000FFF7AFFB08B90120EEE70020ECE7014692
:106D700001F0030008B9012070470020FCE702463B
:106D800050680068401E084008B901207047002084
:106D9000FCE70246002104E0505C08B10120704786
:106DA000491C0629F8D30020F9E710B50346D86836
:106DB000884206D88818401E1C69A04201D80120CC
:106DC00010BD0020FCE7000010B504466CB1084877
:106DD000C068A04209D806480069A04205D32046F1
:106DE00005F04FFA08B1012010BD0020FCE70000BB
:106DF0009426002070B504460D4604F22740FFF7A4
:106E0000C8FF0646012D06D0022D0DD0032D11D04E
:106E1000042D19D113E0A07928B194F8240010B9F9
:106E20000EB1012070BD00BFE07910B10EB102209B
:106E3000F8E700BF207A08B10320F3E700BF607ACB
:106E400008B10420EEE700BF0020EBE70146481C34
:106E5000052290FBF2F302FB1300C0B2704701461B
:106E600091F82420012A01D1EE2000E01F20704774
:106E700010B501220221002001F008FF044600BFE6
:106E80001CB1072C01D0204610BD00BF07220221F3
:106E9000012001F0FBFE044600BF1CB1072C01D00D
:106EA0002046F1E700BF0A220021084601F0EEFE6D
:106EB000044600BF1CB1072C01D02046E4E700BF08
:106EC0000020E1E730B5ABB0AC216846FFF7E7FA48
:106ED00002208DF8000001208DF8020006208DF8B8
:106EE00003000120ADF810001049059101218DF833
:106EF0007C104FF49671229144F2506123910C481A
:106F0000299069460B4800F0D8FD044600BF25468D
:106F100025B100BF284600F031F900BF00BF0121B4
:106F2000044800F0C7FD2BB030BD00000E24002047
:106F3000EDFC0200C826002070B50446012C02D1E9
:106F400002F000FE0EE00321074800F07DFE05463A
:106F500000BF2E4626B100BF304600F00FF900BF3B
:106F600000BF00BF70BD0000C826002070B58CB007
:106F700004460D461646002005E0C0F10F01615C95
:106F80000DF80010401C1028F7D30D2104A8FFF7BE
:106F900086FA002005E02A5CC0F10F0304A9CA5458
:106FA000401C0328F7D3684646DF002005E0C0F107
:106FB0000F0208A9895C3154401C0328F7D30CB098
:106FC00070BD10B50446022001F008FD10BD0000A0
:106FD00010B5044602480178204600F0C5FF10BDF8
:106FE0004C25002010B5002407E00749096811F876
:106FF0003400012108F090F9641C044800788442B0
:10700000F3D3002010BD0000882500208C2500202F
:107010002DE9F84306460D4617460A2F02D20720EF
:10702000BDE8F88308F0BCFA38B908F04FFA044616
:1070300000BF204600B1F3E700BF184806601848BB
:1070400005701848076018480021016041608160A0
:10705000C160164A1160516015E006EBC50814487E
:107060000068009098F802008DF8010098F8000080
:10707000104A694608F0A6F9044600BF204600B150
:10708000CEE700BF00BF281EA5F10101CDB2E4D1BB
:10709000094A0021094800F0B9F8C1E78825002015
:1070A0008C250020902500202832002098250020E3
:1070B0005064030091B402009D9C02004C640300E4
:1070C00072B600BF07F0A4FB00BF00BF07F092F844
:1070D0000028FBD100BF00BF1D491E4A891AC908FC
:1070E000012242EA01401CA107F086FA00BF1D48B8
:1070F000006800F0010000B100BE00BF1449154A4D
:10710000891AC908022242EA014017A107F074FA5D
:1071100000BF00BF00BF00BF00BFBFF34F8F00BF65
:1071200000BF00BF0F48E438006800F4E060124977
:107130000843001D0B49E439086000BF00BF00BFD1
:10714000BFF34F8F00BF00BF00BF00BF00BFFDE710
:10715000348203008C810300466174616C20657287
:10716000726F7200F0ED00E053797374656D2072F8
:1071700065736574000000000000FA053EB5044622
:10718000002000900190029002946A46002144F28F
:107190000100FFF795FF3EBD70B504460D46204641
:1071A00003F034FC28B12946204603F01EFC0020E1
:1071B00070BD0520FCE7034609B90E20704712B1E7
:1071C000501E104008B10920F8E71960501E988041
:1071D00000209860D86000BFF0E770B504460D4607
:1071E000204603F013FCA188884205D82946204692
:1071F00003F01AFC002070BD0420FCE710B5024823
:1072000002F0E0FD10BD0000A025002010B50346EF
:107210000C460AB9072010BD19684A61012C01D13A
:10722000012000E0002008610020F4E738B5134891
:10723000006800900823582211491248006805F0A0
:107240005CFE04460CB1204638BD0F4A69460F4823
:1072500002F0BEFD04460CB12046F5E701210B48C3
:1072600002F05CFE01230A4A1946084802F07CFD40
:107270000120084908702046E6E700006464030026
:10728000383200205464030015390300A025002083
:10729000FFFF7F00AC2500202DE9F04106460D469A
:1072A00017463446207F10B10020BDE8F081A76169
:1072B00004F0D0F8401941F10001C4E9020120694D
:1072C00000B12561214600200DF036FFEDE770B5D5
:1072D0000446254600202877294601200DF02CFF82
:1072E00070BD00002DE9F04104460F4807782146A3
:1072F0000E48FFF751FF804697B100200A490870F9
:1073000001220B490B4806F055F9054600BF2E46F1
:1073100026B100BF3046FFF731FF00BF00BF00BFFE
:107320004046BDE8F08100002E26002058340020A1
:107330002D260020142600202DE9F04188B00446B7
:107340000E46174698462B4807601EB9072008B01E
:10735000BDE8F081B08882B227483168FFF72BFF83
:10736000054600BF284600B1F1E700BFB08982B2F0
:107370002248B168FFF71FFF054600BF284600B14D
:10738000E5E700BF20221E496846FFF76FF86069F5
:107390000690207C08B1012000E000208DF8140048
:1073A0008DF81C80607C08B10E2000E000208DF874
:1073B0001500E0680290A068039020680190606862
:1073C0000090104A6946104806F0AEF8054600BF26
:1073D000284600B1BBE700BF00200C4908702068B8
:1073E000401C28B101220A49074806F0E3F8AEE73D
:1073F0000020ACE728260020583400206834002004
:1074000090660300A9530300142600202E260020B6
:107410002D2600202DE9F041054629461448FFF7A6
:10742000DCFE064606BB134C002720781249085C98
:1074300020B1201D08F0C6FB074608E020780E4961
:10744000085C20B904F10C0008F064FA074600BF9C
:1074500057B90A490648FFF79FFE28B90122074994
:10746000044806F0C9F806463046BDE8F081000041
:107470006834002014260020702500202C260020CF
:1074800010B5044620460CF0E1FB10BD70B5044673
:1074900025460E488068B0B1ADB9FFF781FB0646BE
:1074A0000A4800680A490860084840684FF0E0212F
:1074B000C1F804010020054988601EB900BF62B60A
:1074C00000BF00BF00BF00BF70BD0000A0320020A1
:1074D00000E100E0F8B505460C4617462088001D7F
:1074E000B84201D90C20F8BD684679DF064600BFD6
:1074F000304600B1F7E700BF032021886854208898
:10750000401C20801920218868542088401C20803D
:1075100020884119BDF800000EF066F92188084462
:1075200020800020DFE7704770B505460C462068D4
:10753000401C28B1206806F01AFD206806F0AEFC59
:107540006068401C18B10021606806F08DFC286856
:10755000A169C0F8241500BF617D227D286841EA39
:107560000203C0F86C3500BFD4E90012286807F0A8
:107570003CFE207D012814D1A068401C18B10021D8
:10758000A06806F071FCE068401C28B1E06806F0D5
:10759000EEFCE06806F082FCD4E90221286807F0DE
:1075A0000DFE70BD70B505460C462068401C28B124
:1075B000206806F0E7FC206806F07CFC6068401C50
:1075C00018B10021606806F05CFC2868A169C0F869
:1075D000241500BF617D227D286841EA0203C0F8BE
:1075E0006C3500BFD4E90012286807F036FE207D14
:1075F000012814D1A068401C18B10021A06806F031
:1076000040FCE068401C28B1E06806F0BBFCE06884
:1076100006F050FCD4E90221286807F0FFFD70BD98
:1076200070B504460D46204604F062FF70BD10B5EB
:107630000446637903F003022179208804F010FFE7
:1076400010BD10B50446207918B9204600F008F89E
:1076500003E02046FFF7EBFF00BF00BF10BD0000B6
:107660002DE9FE4307463E884FF0000800225948A6
:107670000178304600F08EFC7879C0F3800028B99C
:107680000021384609F06AFDBDE8FE8306F58071E9
:1076900088B201AB0122072109F080FE0546C5B181
:1076A000284607F069FD81464B494C4A891AC908AA
:1076B000012242EA014033464A46494906F0B2FFF8
:1076C000294630460CF0E6FD0021384609F046FD1B
:1076D000DAE7304604F0AAFA04464FF6FF718C420E
:1076E0001BD1029804F0F2F904464FF6FF70844271
:1076F00013D02146304604F077FA3046FFF768FC95
:1077000058B930460CF05AFD3046FFF761FC20B9FD
:107710000021384609F022FDB6E74FF6FF7084429B
:107720001FD10AF051F804464FF6FF70844212D17F
:1077300029492A4A891AC908012242EA014029A195
:1077400006F05AFF042130460CF0A4FD0021384613
:1077500009F004FD98E72146304604F045FA4FF061
:10776000010806F5807188B22246072109F09EFEC5
:10777000054625B90121384609F0F0FC28E0862DA0
:1077800007D130460CF04CFD0121384609F0E6FCEB
:107790001EE0284607F0F0FC81460F490F4A891A7F
:1077A000C908012242EA014033464A461A49009478
:1077B00006F048FF294630460CF06CFD00213846A3
:1077C00009F0CCFCB8F1000F02D0204604F016FA04
:1077D00000BF59E749250020CC8103008C810300BC
:1077E00078760300436F756C64206E6F7420616C53
:1077F0006C6F63617465206E657720706565725F7C
:10780000696420666F7220696E636F6D696E6720B0
:10781000626F6E642E00000094770300002114E074
:107820000C48D0F81024012308E000BFD06800798C
:10783000884201D1002303E0D0680268002AF4D115
:1078400000BF0BB108467047491C0A29E8DB4FF01E
:10785000FF30F8E7103600202DE9F04104460F46CE
:10786000154615B90E20BDE8F0810020286000BF44
:107870000CB90E20F7E700BF00BF206808B90E2042
:10788000F1E700BF00BFE088C11700EB91718910DC
:10789000A0EB810109B10720E5E700BF384600F001
:1078A000DBFAC6B2142E01D10520DCE72079B04204
:1078B00001DC0420D7E7E188206806FB010028608E
:1078C0000020D0E72DE9FC410546884616460024F5
:1078D00037880020308095F82D0058B13A4631465F
:1078E000404600F07BFB044600BF204608B1BDE8DF
:1078F000FC8100BFA87850B13A4631464046FFF7B8
:10790000E9FD044600BF204600B1F0E700BFE8787B
:1079100060B1E97848B23B463246414603F0DAF8B6
:10792000044600BF204600B1E1E700BF686868B1C7
:10793000696891F900003B46324641460DF089FCEA
:10794000044600BF204600B1D1E700BF28890028C7
:107950000EDD43460622022105F10800CDE900674D
:107960000EF049F8044600BF204600B1BFE700BF53
:10797000288A00280EDD43460722032105F1100066
:10798000CDE900670EF037F8044600BF204600B18D
:10799000ADE700BF288B00280EDD434615221421D9
:1079A00005F11800CDE900670EF025F8044600BF88
:1079B000204600B19BE700BF286A58B13B463246DB
:1079C0004146286A01F0ECFE044600BF204600B1A3
:1079D0008DE700BF686A58B13B4632464146686A47
:1079E00004F04AFF044600BF204600B17FE700BF15
:1079F00095F82C0000280BDD3B46324641462846D0
:107A00000CF0FCFD044600BF204600B16FE700BF4C
:107A1000287858B13B4632464146284605F01BF8C7
:107A2000044600BF204600B161E700BF20465EE784
:107A3000F8B504460E461546002000902B466A46CF
:107A40003146204600F008F807460FB90020F8BD7F
:107A5000BDF800002044FAE7F0B504460D461E4686
:107A600004B10AB90020F0BD002103E0605C401CB5
:107A7000084481B2481CA84206DA10888842F5DC26
:107A8000481C205CB042F1D1A94201DB0020EAE7AA
:107A9000881C87B2605C10B1605C401E00E0002072
:107AA00083B213B1F818A84201DD0020DBE717808C
:107AB0001846D8E780F83010704770B504460D4678
:107AC00005B10CB90E2070BD05F1780001F009FE7A
:107AD00008B90720F7E70020A0702C2205F17801F3
:107AE000201DFEF7C3FC002084F83000D5F8A40068
:107AF0006063D5F8A800A0634FF6FF70A4F82404D3
:107B000004F58260C4F82004002140F22C40C4F83F
:107B10002614A4F82A140155207810B9FF2084F8FF
:107B2000540004F15500C4F810042046FFF797F9FB
:107B300040F21441085304F2144204F1550128465E
:107B4000FFF7C0FE064600BF304600B1BBE700BFEE
:107B500004F231204FF4836108512046FFF77FF98A
:107B6000A4F81C044FF48360015904F21C4205F18F
:107B70003C00FFF7A7FE064600BF304600B1A2E773
:107B800000BF012151200155208B81B248200153B3
:107B9000012084F83C0000212164502001556169D6
:107BA000616404F13C02002104F1540072DF0646D6
:107BB00000BF304600B186E700BF0120207030468C
:107BC00081E770B504460D462E462088102804D063
:107BD000112807D026280FD109E02146304608F0A9
:107BE000AFF90AE02146304608F08FFB05E0214658
:107BF000304608F038FF00E000BF00BF70BD70B530
:107C0000044694F8540074DF012084F82E04002008
:107C100084F830040021502001550621204602F04E
:107C200074FF054600BF284600B170BD00BFA178B3
:107C3000204600F009F8054625B1A06B10B1284692
:107C4000A16B88470020F0E770B504460E46207807
:107C500008B9082070BDA670002140F22C40C4F87D
:107C60002614A4F82A140155A07910B1A07801288F
:107C700009D0E07910B1A078012804D0E07970B182
:107C8000A07802280BD1606B30B1012084F82D045C
:107C90000820616B884702E0002084F82D043146FB
:107CA0002046FFF7A7F8A070606BA0B1A07803286A
:107CB00002D0A07804280ED1607960B194F82E0427
:107CC00048B9002084F83004012084F82F040720EC
:107CD000616B884702E0002084F82F04182104F12A
:107CE0003C00FEF7DCFB012084F83C0004F12C0092
:107CF00009F044FF20B194F82C105120015502E006
:107D000001215120015594F8240060B104F12800AC
:107D100009F034FF20B194F828105220015502E0F8
:107D2000012152200155002150200155A07805283D
:107D300024D2DFE800F01F030A11180004F13C010F
:107D400020460CF0F5FC054619E004F13C01204604
:107D50000CF0D6FC054612E004F13C0120460CF084
:107D6000F9FC05460BE004F13C0120460CF020FD37
:107D7000054604E0002084F8310000E000BF00BFA9
:107D8000A07898B104F13C0204F15400D4F8201416
:107D900072DF05460DB128465CE794F8301094F880
:107DA000540073DF05460DB1284653E7606B18B1E8
:107DB00094F83100616B884700204BE72DE9F041D2
:107DC000044600BF14B90E20BDE8F08100BF1C229C
:107DD00021461C48FEF74AFB1B481A4908602068E8
:107DE00060B120687ADF05460DB12846ECE71648F9
:107DF00021680A6802604968416005E012487BDF3B
:107E000005460DB12846DFE7002617E006EB8600A1
:107E10000E4901EB800700BF4FF6FF70388000BFAE
:107E20000B4800EB461078600A4A0021381DFFF726
:107E3000EDF905460DB10320C6E7761C002EE5D00E
:107E40000020C1E7CC2D002048240020B82D0020C0
:107E5000982D00200559030010B50446204600F077
:107E6000AFF808B1204610BD1420FCE710B5044659
:107E7000204600F0A5F820B12146034805F0DFF8C0
:107E800010BD0020FCE70000F82D002070B504466E
:107E90000D46164620460DF07FFD08B9002070BD46
:107EA000034951F824003246294602F0A3FEF6E7C2
:107EB000042E002010B50446204600F081F820B1C1
:107EC0002146034805F0BBF810BD0020FCE7000088
:107ED000002E002010B50446204600F071F820B1B5
:107EE0002146034805F0ABF810BD0020FCE7000078
:107EF000FC2D002070B504460025204600F060F8F7
:107F000050B12146054805F09AF806460EB1022008
:107F100000E00120054600BF284670BDF42D00207A
:107F200070B504460025204600F04AF850B12146BD
:107F3000054805F084F806460EB1022000E0012055
:107F4000054600BF284670BDF02D002010B5182151
:107F5000044805F044F80446182C00D110BDE0B2E6
:107F6000FCE70000E82D002070B505460C462046D1
:107F70000DF012FD50B1284600F022F830B104494E
:107F800001EB8400294605F05AF870BD0020FCE79B
:107F9000042E002070B505460C46164620460DF00E
:107FA000FBFC50B1284600F00BF830B1034901EB5F
:107FB00084003246294602F07EFD70BD042E00206A
:107FC00010B50446142C01DB002010BD21460248E8
:107FD00005F035F8F9E70000EC2D00202DE9FC4113
:107FE00005460C46174620880930B84202D90C20B5
:107FF000BDE8FC8168466DDF064600BF304600B133
:10800000F6E700BF0820218868542088401C2080A3
:108010001B20218868542088401C20802088284408
:10802000DDF801100160BDF8051081802088801DF9
:1080300020809DF80000400818B90020218868546D
:1080400002E00120218868542088401C2080002004
:10805000CEE700002DE9FF4705468946002405F1DB
:10806000040808F104062888212860D004DC1028C0
:1080700012D0112875D104E03B2874D05628F9D1CC
:1080800089E05349534A891AC908032242EA014048
:1080900051A106F0B1FA97E04D494E4A891AC90834
:1080A000032242EA014050A106F0A6FA7178B278A4
:1080B000F3783079CDE90132039100907379B27988
:1080C0004349444FC91BC908032747EA014049A156
:1080D00006F0E2FA96F901108A1E3D493D4BC91A95
:1080E000C908032343EA01404AA106F08FFA07209A
:1080F00000F0FAFD044600BF274627B100BF38460E
:10810000FFF73CF800BF00BFA88843490880084635
:108110000188424805F046F9044600BF274627B1CA
:1081200000BF3846FFF72AF800BF00BF4CE02849DF
:10813000284A891AC908042242EA014038A106F0F7
:108140005BFA00200390A88803A98FDF044600BFD4
:10815000274627B100BF3846FFF710F800BF00BF21
:1081600032E030E0FFE71A491A4A891AC9080422A6
:1081700042EA01402FA106F03FFAA888132176DFDA
:10818000044600BF274627B100BF3846FEF7F6FF7A
:1081900000BF00BF18E00E490E4A891AC908042220
:1081A00042EA014029A106F027FAA888132176DFC8
:1081B000044600BF274627B100BF3846FEF7DEFF62
:1081C00000BF00BF00E000BF00BFBDE8FF870000A8
:1081D000348203008C810300446973636F6E6E65A3
:1081E000637465642E000000436F6E6E6563746592
:1081F000642E0000253032783A253032783A253026
:1082000032783A253032783A253032783A25303291
:1082100078000000256400000A240020BC2600200D
:108220005048592075706461746520726571756578
:1082300073742E004741545420436C69656E74205A
:1082400054696D656F75742E0000000047415454E9
:10825000205365727665722054696D656F75742E52
:108260000000000070B505460E462888102802D090
:1082700011282CD115E01748006860B901F07AFB8D
:10828000044600BF34B11448006818B120461249B2
:108290000968884700BF0F480068401C0D49086006
:1082A00016E00C480068401E0A490860084600684D
:1082B00060B9FEF7DDFD044600BF34B10648006832
:1082C00018B1204604490968884700BF00E000BF94
:1082D00000BF70BD442400204024002070B5044637
:1082E0000D462088102806D0112808D012280ED05C
:1082F000502810D107E0204607F072FD0CE0204620
:1083000007F0EAFF08E0204608F0DEFB04E0204624
:1083100007F04EFD00E000BF00BF70BD2DE9F04149
:1083200004460F46A6882088102806D0112817D0AA
:1083300019283DD01A2848D116E00BF0FFF8304636
:108340000AF070FF20B900BF0420FEF717FF06E017
:10835000E07B022803D131461D4804F07FFE34E063
:1083600030460BF00FF930E0207A0509042D01DBCF
:10837000012000E000200246314615480C3002F092
:108380009AFB032D01DB012000E00020024631466C
:108390000F48083002F08FFB022D01DB012000E0C6
:1083A0000020024631460A48001D02F084FB0CE022
:1083B000207A48B9607AC0F3C0052A46314604489D
:1083C0000C3002F078FB00BF00BF00BFBDE8F081B9
:1083D000F42D002070B504460D4600BF0748007814
:1083E00000B970BD00BF204603F0DAFA20460CF059
:1083F00093FA204602F00EFE00BFF2E7842400202C
:1084000001461320D1F87C2152B1002205E0D1F8B9
:108410007C3133F832301844521C8B7C9342F6D8AE
:10842000D1F880215AB1002205E0D1F8803133F82B
:1084300032301844521C91F878309342F5D8D1F874
:1084400084215AB1002205E0D1F8843133F832306A
:108450001844521C91F8DE309342F5D870477CB531
:1084600006460C4600BF0EB90E207CBD00BF00BF03
:108470000CB90E20F9E700BFA07A0A2805DC207CA1
:108480000A2802DC207E0A2801DD0720EDE72068AB
:10849000306060687060A07AB074207C86F87800E4
:1084A000207E86F8DE0000BF01208DF8060041F630
:1084B0001200ADF8040000BF06F1080201A9012076
:1084C000A8DF05460DB12846CFE72146304603F028
:1084D000E1FB05460DB12846C7E7207A08B9607A66
:1084E00050B194F83D2094F83C1030460AF0A8FCB6
:1084F00005460DB12846B8E72146304603F0BAFCE0
:1085000005460DB12846B0E72146304608F008FC84
:1085100005460DB12846A8E72146304602F02CFA60
:1085200005460DB12846A0E7214630460BF0FAF883
:1085300005460DB1284698E7207AB0B106F5A77038
:1085400004F14203082242F622210090304600F056
:108550008DF905460DB1284687E72146304600F0E3
:10856000C3F905460DB128467FE7607A70B106F57C
:10857000AF7004F13F03082242F6332100903046E9
:1085800000F074F905460DB128466EE721463046E5
:1085900003F027F905460DB1284666E794F83E102A
:1085A000304603F0F7F805460DB128465DE7E06870
:1085B000C6F87C016069C6F88001E069C6F88401EC
:1085C000284652E770B504460D462E4620881028EE
:1085D00004D0502807D051280FD109E02146304659
:1085E00007F036FC0AE02146304608F099FA05E02B
:1085F0002146304608F0B8F900E000BF00BF70BD6A
:108600002DE9F04186B00446884617461D4600BF56
:108610001CB90E2006B0BDE8F08100BF01AA2946B2
:108620006069FFF719F9064600BF304600B1F1E76F
:1086300000BF4FF6FF70854201D0019808B90520B0
:10864000E8E70198007808B90820E3E7388814289B
:1086500001DD0720DEE700200290039004900590E2
:10866000A088ADF80800CDF81480049701208DF89B
:108670000A0002A92846AEDFCCE7000070B58EB034
:1086800004460E463E4B0FCB09AD0FC500BF14B9D3
:108690000E200EB070BD00BF00BF0EB90E20F8E76F
:1086A00000BF3068A061214609A862DF054600BF0F
:1086B000284600B1EDE700BF20788DF83600012094
:1086C000ADF83400A21C0DA9A8DF054600BF28465E
:1086D00000B1DEE700BF202101A8FDF7E0FE022087
:1086E000ADF8040020788DF806001420ADF80800DD
:1086F0000120ADF80A008DF810009DF8110020F05F
:10870000080008308DF811009DF8110020F00400D9
:10871000001D8DF8110001208DF815008DF8160050
:10872000608804F10C0201A900F092FE05460DB12B
:108730002846AEE7202101A8FDF7B1FE0320ADF8E1
:10874000040020788DF806001420ADF80800012000
:10875000ADF80A008DF810009DF8110020F010000F
:1087600010308DF8110001208DF815008DF81600DD
:108770008DF817006088221D01A900F069FE88E7C6
:108780007867030070B504460D4605B104B970BDA5
:108790002E462088102804D0502807D057280FD103
:1087A00009E02146304607F091FB0AE021463046B9
:1087B00008F06CFA05E02146304607F0FDFE00E0C7
:1087C00000BF00BF00BFE2E770B5044620460DF0D1
:1087D00005F8054605F0010070BD2DE9F04105469C
:1087E0000E46002432782146641C6A547278214671
:1087F000641C6A5400BF022C01D1012000E000205B
:10880000074627B900BF0020FEF7B8FC00BF00BF35
:108810002046BDE8F08138B506F07EFB044600BF77
:10882000254625B100BF2846FEF7A8FC00BF00BFC3
:10883000002000906946012006F0AEF9044600BF12
:10884000254625B100BF2846FEF798FC00BF00BFB3
:10885000684606F051FA044600BF254625B100BF20
:108860002846FEF78BFC00BF00BF38BD2DE9F04164
:1088700088B005460E4617461C46DDF83880202194
:108880006846FDF70CFEADF80060ADF804709DF889
:108890000D0020F00200801C8DF80D00607808B1FA
:1088A000012000E000209DF80D1060F3C3018DF859
:1088B0000D109DF80D0020F0100010308DF80D0007
:1088C00020788DF8110060788DF81200A0788DF86E
:1088D000130001208DF80F0028894246694600F0F8
:1088E000B7FD08B0BDE8F08130B589B004460D464B
:1088F000202101A8FDF7D3FD42F63220ADF8040097
:108900000120ADF808009DF8110020F00200801C45
:108910008DF811009DF8110020F0080008308DF846
:1089200011009DF8110020F00400001D8DF81100C9
:1089300095F845008DF815004620405D8DF816002D
:1089400001208DF81300208904F5AB7201A900F015
:108950007FFD09B030BD000001460148405C704712
:10896000D061030010B50146094B585C00BF4FF0C1
:10897000A044234600BFD3F81045C44004F00104CE
:108980000CB1012000E00020024682F0010010BD81
:10899000D06103007CB500240DE00848055D032686
:1089A000002000903346024601460190284605F01B
:1089B0000BFA00BF641C042CEFD37CBDD061030014
:1089C00010B5044604F0010008B100F04BF804F0C3
:1089D000020008B1FFF7DEFF10BD000010B502462F
:1089E0000949885C00BF4FF0A0442146D1F8043506
:1089F000012484409C43C1F80845012484401C4064
:108A0000C1F80C4500BF10BDCC61030010B5044691
:108A10000249085D012105F0C0FA10BDCC610300D8
:108A200010B504460249085D002105F0B6FA10BDF4
:108A3000CC61030010B50146094B585C00BF4FF0F4
:108A4000A044234600BFD3F80445C44004F0010409
:108A50000CB1012000E00020024682F0010010BDB0
:108A6000CC6103007CB500240CE00948055D0020C2
:108A700000900346012211460190284605F0A4F912
:108A800000BF641C042CF0D300F004F87CBD00008F
:108A9000CC61030010B5002403E02046FFF7B6FFC9
:108AA000641C042CF9D310BD10B5002403E020464B
:108AB000FFF7B6FF641C042CF9D310BD02464FF03B
:108AC000FF30002106E0054B5B5C934201D1084674
:108AD00002E0491C0429F6D300BF7047D0610300AF
:108AE00070B505460C4600260648056014B12046C0
:108AF0000CF074F90448006810B9FEF7B9F906469D
:108B0000304670BD402400204424002010B50020D1
:108B100000F014FB044600BF1CB1062C01D0204617
:108B200010BD00BF012000F009FB044600BF1CB1CE
:108B3000062C01D02046F3E700BF0020F0E700003C
:108B40002DE9F04106460F464FF00008002430465C
:108B5000FFF7B4FF0446042C3ED20FB3012F02D01E
:108B6000022F38D130E004EB4400214911F8008095
:108B700004EB44000844407850B11E4A4FF4804151
:108B80001D480068FEF788FB05460DB919480670B8
:108B900004EB4400164908448078184908551AE047
:108BA00015480068FEF793FB1448005D04EB440190
:108BB0000F4A11448978884205D104EB44001146DC
:108BC000084490F8028006E004EB44000849084499
:108BD00090F8018000BF00BFB8F1000F06D0084830
:108BE000006818B14046064909688847BDE8F08129
:108BF000682D002038240020DC6103003924002087
:108C00003424002010B50446042C03D22046FFF77C
:108C1000A9FE10BD0020FCE770B50546042D06D066
:108C2000072D15D00A2D29D10BF04FFE27E0132177
:108C30001448008876DF0446082C08D000BF26467A
:108C400026B100BF3046FEF799FA00BF00BF16E01C
:108C50000C4800884FF6FF7188420ED10A48FEF793
:108C6000CEFF0446082C08D000BF264626B100BF20
:108C70003046FEF783FA00BF00BF00E000BF00BF30
:108C800070BD00000A240020C826002030B503462D
:108C90000020042B23D2012A07D1012903D103F19B
:108CA0000E04E4B200E00024224679B1012902D08A
:108CB000022911D104E003EB43040A4D2A550DE0CB
:108CC00003EB4304074D2C44627007E003EB4304BD
:108CD000044D2C44A27001E0072000BF00E00720F3
:108CE00030BD0000682D002070B504460025054801
:108CF000007800F0010018B1204600F05BF805464E
:108D0000284670BD2C2400202DE9F04105460F4671
:108D100000241F4805601F48076005F0020000B3EB
:108D2000002606E0012211463046FFF7AFFF044659
:108D3000761C042E01D2002CF4D034B940F2333228
:108D400004211548FEF764F9044614B9FEF74AF900
:108D500004462CB9114A00211148FEF757FA04467F
:108D600000BF05F0010080B10120FFF729FE2CB9FA
:108D70000C4A00210C48FEF749FA04462CB90B4A6C
:108D800001210B48FEF742FA04462046BDE8F08177
:108D90002C24002034240020E0610300A59202006E
:108DA000DC61030015C30200D4610300C36F02003D
:108DB000D86103002DE9F047044600260025DA4873
:108DC000007820B10020D849087003F08FFA182CE1
:108DD0007ED2DFE804F00C16174A7EB2F6F4F3F206
:108DE000F1F0EFEEEDECEBEAE9E8E7E6E5E403F0BD
:108DF0007DFACE480068FEF76AFA0646CC48047051
:108E00008DE100BF0020FFF715FE58B10020FFF7ED
:108E1000FDFD022C02D14FF4E16001E04FF47A60D5
:108E2000054609E00020FFF7FBFD022C01D1C82018
:108E300001E04FF4C8700546BD4804704FF400408F
:108E4000A5FB00104FF47A73CF1840F100015A00CF
:108E500000233846FDF7C6FA814600224946B3484A
:108E60000068FEF719FA064659E10020FFF7E2FD17
:108E700058B10020FFF7CAFD032C02D14FF448700F
:108E800001E04FF47A60054609E00020FFF7C8FDD5
:108E9000032C01D1C82001E04FF4C8700546A44856
:108EA00004704FF40040A5FB00104FF47A728F1845
:108EB00040F10001520000233846FDF793FA814645
:108EC0000022494699480068FEF7E6F9064626E181
:108ED00024E10020FFF7AEFD58B10020FFF796FD1A
:108EE000042C02D14FF47A6001E04FF47A60054619
:108EF0000AE00020FFF794FD042C02D14FF4C87063
:108F000001E04FF4C8700546894804704FF40040F2
:108F1000A5FB00104FF47A73CF1840F100015A00FE
:108F200000233846FDF75EFA8146002249467F4815
:108F30000068FEF7B1F90646F1E00020FFF77AFD80
:108F400050B10020FFF762FD052C01D1C82001E0DF
:108F50004FF47A60054609E00020FFF761FD052C1B
:108F600001D1C82001E04FF4C87005467048047074
:108F70004FF40040A5FB00204FF47A73D71840F15E
:108F800000015A0000233846FDF72CFA81460022E2
:108F9000494666480068FEF77FF90646BFE0B8E03C
:108FA000B6E0AAE0A1E098E092E05FE05DE05BE07F
:108FB00059E057E051E042E033E024E015E00EE0F4
:108FC000FFE70020FFF70AFD59480470002240F235
:108FD000666156480068FEF75FF906469FE000208C
:108FE000FFF71EFD5248047099E001204E490870B9
:108FF000FFF7F4FC002240F266614C480068FEF77F
:109000004BF906468BE0012047490870FFF7E6FC64
:1090100000224FF4005145480068FEF73DF906462E
:109020007DE0012040490870FFF7D8FC002240F2A3
:1090300066613E480068FEF72FF906466FE00120A2
:1090400039490870FFF7CAFC00224FF40051374835
:109050000068FEF721F9064661E0FFF725FD344878
:1090600004705CE000BF00BF00BF00BF3148006873
:10907000FEF72DF90646C4F1110515B30EBB012DFF
:1090800018D9A8B2C82148434FF4004180FB011011
:109090004FF47A728F1840F10001520000233846D5
:1090A000FDF7A0F981460022494622480068FEF7F4
:1090B000F3F806460220FFF7B3FC01201E490870B2
:1090C00005E00220FFF7A2FC00201B49087026E003
:1090D00003F00CF91648047021E003F007F90020B2
:1090E000FFF79EFC1248047019E003F0FFF801201E
:1090F000FFF796FC0E48047011E003F0F7F800202B
:10910000FFF78EFC0120FFF78BFC0948047006E096
:1091100000BFFFF7C9FC0648047000E000BF00BFB5
:109120003046BDE8F087000029240020D461030008
:1091300028240020D86103003024002010B5044604
:10914000012120460CF0E9FC10BD00002DE9FC4790
:1091500004460D461646A71C4FF00108002001905A
:1091600001A8FEF78DF93048406828602E48406815
:109170002D498968411A2D480068401CA0EB01095F
:1091800015E001212A4803F08DFF03F0C3FA82465F
:109190005146274803F086FF2348406822498968E2
:1091A000411A22480068401CA0EB010900BF4F454E
:1091B000E7D8B8F1000F30D00021009176B10099C6
:1091C00021F00301491C0091009921F00401091DBF
:1091D0000091009964F3891100910DE0009921F04C
:1091E0000301891C0091009921F00401091D0091DF
:1091F000009964F39F5100910B4949680B4A12682A
:109200001140094A0C3202EB8100009901600649C5
:10921000496839440C3A516000BF9DF80400FEF7DC
:1092200035F94046BDE8FC8710360020482600206E
:109230002C3A002070B504460D460A2D03D10D21AD
:109240002046FFF7F7FFA168481CA060206845543E
:10925000D4E90110884202D3204604F004FA70BD1C
:109260000448806803494968884201D10120704759
:109270000020FCE7103600200246002108E0074BE2
:109280001B6803EBC1000378934200D17047491C6F
:10929000034800788142F2DB0020F7E788250020B0
:1092A0008C25002010B5044620780221FFF748FCE9
:1092B00010BD0000F8B5054612490320FFF724FD54
:1092C000044600BF264626B100BF3046FDF756FFD4
:1092D00000BF00BF69460020FFF702FC044600BF44
:1092E000264626B100BF3046FDF748FF00BF00BF4D
:1092F0009DF80000022801D1012000E00020287024
:10930000F8BD0000198C02007CB50446204602F02E
:109310008DFC054600236A46092108F09DF90528C1
:1093200005D10122024801782046FEF733FE7CBDBC
:10933000602400207CB504460E460020019042F6D1
:10934000A620ADF8040001208DF80600074800684B
:1093500000906A4601A92046A0DF05462DB90122EA
:10936000034801782046FEF715FE7CBD44620300E9
:109370006124002001468879012809D10879012853
:1093800006D1488842F60212904201D1012070476E
:109390000020FCE74FF0FF31054A42F82010082872
:1093A00004DBFF23A0F10801503253547047000042
:1093B0005C3100200146024850F82100704700004F
:1093C0005C3100202DE9F04F03460C464FF0FF3989
:1093D0000AB1002000E0082084460AB1082000E01D
:1093E0000C208046614624E0154850F82100401CBE
:1093F000F0B91D460846274616464FFA80FBDFF8AF
:1094000040A00AF1300A0AF805B0DFF834A04AF8A3
:1094100020704EB94FFA85FBA0F1080ADFF820E072
:109420000EF1500E0EF80AB000BF4FFA81F902E0BB
:10943000491C4145D8D300BF4846BDE8F08F000025
:109440005C31002001460148405670478C310020B5
:1094500070B590B006460C461546A07818B90120A4
:109460008DF80E0002E0A0788DF80E002088ADF88F
:109470000C0000200290607C02A90BF0C7F9A07CD0
:109480000DF109010BF0C2F9E07B08B1012000E009
:1094900000209DF80A1060F3C3018DF80A10207CAB
:1094A00008B1012000E000209DF80A1060F30411CB
:1094B0008DF80A10207B08B1012000E000209DF803
:1094C0000A1060F300018DF80A10207D08B1022017
:1094D00000E001209DF80A1060F342018DF80A10A7
:1094E0001C2109A8FCF7DBFF607BC0F3001018B952
:1094F000607BC0F34010F8B100200090E07C0DF1DB
:1095000001010BF083F900BF9DF8000020F00F006F
:10951000401C8DF800009DF8000020F0F000103095
:109520008DF8000000BF9DF8020020F00600801CAE
:109530008DF80200CDF838D0607B8DF82400A07B38
:109540008DF82500142104A8FCF7A9FF03A80490B6
:1095500002A80590A088ADF81C00A06820B1E088A2
:10956000ADF81800A0680890A069002849D0002034
:109570000190A0690088ADF82C00A0694088ADF882
:109580002E00A06940680A9001A80D90A169087B8F
:1095900001A90BF03BF9A169487B0DF105010BF026
:1095A00035F9A069807A08B1012000E000209DF81B
:1095B000061060F3C3018DF80610A069C07A08B1E7
:1095C000012000E000209DF8061060F304118DF8E2
:1095D0000610A069007A08B1012000E000209DF883
:1095E000061060F300018DF80610A069807B08B1B9
:1095F000022000E001209DF8061060F342018DF882
:109600000610E06908B1E0690C902B4604AA09A98C
:109610003046AADF10B070BD2DE9F04104460D467A
:109620004FF6FF76304684420AD14FF480712846C7
:1096300003F0D5FC86B2B6F5807F10D126460EE049
:10964000FF2C0CDC2146284603F0B2FC80F0010719
:109650000FB1204601E04FF6FF70064600BF3046CE
:10966000BDE8F08170B505460DB9094C01E0084C24
:10967000083409E0204602F00CFE064606B904E074
:1096800028467168884700BFF4E700BF70BD00003E
:109690005031002010B504462CB90120064948700D
:1096A0000020FFF7DFFF012C04D101200249887060
:1096B000FFF7D8FF10BD0000483100202DE9F0472A
:1096C000024613468C46D3E90245DCE90267B6EB55
:1096D000040877EB050002D30120BDE8F0870020E5
:1096E000FBE701468878012805D191F82000012880
:1096F00001D100207047886A042802D0486A0428F3
:1097000001D10020F6E70120F4E733B58BB0054620
:10971000002000900C9878B100240BE021460CA8A2
:1097200003F08DFC28B1009A501C009001A820F88D
:109730001240641C142CF1D32C2269462846FCF7F5
:1097400095FE0DB030BD01460888062808DB088864
:10975000B0F5486F06DD08884FF6FF72904201D0E1
:10976000072070474888062808DB4888B0F5486F0E
:1097700006DD48884FF6FF72904201D00720F0E7DF
:1097800008884FF6FF72904208D04888904205D072
:1097900008884A88904201DD0720E2E70020E0E7E0
:1097A0002DE9F04107460D46144698462088801D55
:1097B000404502D90C20BDE8F0813846FFF7C3FFD1
:1097C000064600BF304600B1F5E700BF05202188FE
:1097D00068542088401C20801220218868542088EA
:1097E000401C20802288511938880BF0FDFF218809
:1097F000084420802288511978880BF0F5FF2188D1
:10980000084420800020D6E710B5044600BF20465B
:10981000FDF7B4FC00BF10BD30B587B01C21684611
:10982000FCF73DFE002000904FF4A03001904FF473
:10983000F020029003208DF80C000020ADF80E00FF
:109840008DF8100009480590094806906846FEF713
:10985000B5FA044600BF254625B100BF2846FDF7EE
:109860008DFC00BF00BF07B030BD000085FD0200C9
:1098700009980200F8B505460C46607A88B9207A46
:1098800010B91048476801E00E4887682A463946F3
:109890006068FDF701FD064616B130460AF0A0FCEF
:1098A0000EE0002020720748406948B101208DF881
:1098B0000000ADF80250034841696846884700BF80
:1098C000F8BD0000CC2D0020F0B585B004460D4653
:1098D00017461E4614220B496846FCF7C7FDADF833
:1098E00002408DF80850ADF80A708DF80C60002227
:1098F000054801782046FEF74DFB684600F0D6FD8E
:1099000005B0F0BD6C6303004925002010B586B09A
:109910000446208807F0D8FB00BB2088FEF7A6FA93
:1099200030B92088012241F2060100F0B7FB15E0B2
:10993000208800220A490978FEF72CFB02208DF8C6
:1099400004002088ADF8060000208DF80C000021EE
:109950008DF80D1001A800F0A9FD00BF06B010BDE4
:109960004925002070B504460D4629462046FDF7DE
:109970001DF970BD10B5012200210846FFF786F9D8
:10998000044600BF1CB1072C01D0204610BD00BF0B
:10999000072202210120FFF779F9044600BF1CB11C
:1099A000072C01D02046F1E700BF0422022100204D
:1099B000FFF76CF9044600BF1CB1072C01D020460C
:1099C000E4E700BF0020E1E72DE9FF4105460C4632
:1099D00029492A4A891AC908042242EA01402B4629
:1099E000224627A104F01EFE002002900390ADF84D
:1099F0000840ADF80A40009001906A4602A9284646
:109A000090DF0646002E32D0304605F0B5FB074603
:109A100019491A4A891AC908012242EA01403B46FB
:109A20002A46234904F0FEFDBDF8000010B9BDF838
:109A3000020068B1BDF80230BDF800200E490F4F9A
:109A4000C91BC908012747EA01401AA104F0EAFD31
:109A5000BDF8040058B1BDF804200749074BC91AE6
:109A6000C908012343EA0140224904F0CFFD3046F2
:109A700004B0BDE8F0810000A48103008C810300E4
:109A80005570646174696E672064617461206C65EF
:109A90006E67746820746F202575206F6E20636F69
:109AA0006E6E656374696F6E20307825782E0000C5
:109AB000986B0300546865207265717565737465F1
:109AC000642054582F5258207061636B6574206C69
:109AD000656E67746820697320746F6F206C6F6E99
:109AE000672062792025752F2575206F6374657452
:109AF000732E0000E46B03002DE9F04105460F468C
:109B00000F4C0121204603F004FB064600BF00BFB6
:109B100000BF00BFBFF35F8F00BF00BF00BF0EB923
:109B2000012000E0002040B1284602F04FFD08B1BE
:109B3000BDE8F081024804F085FF00BFF8E70000AF
:109B40005824002070B50B490B4A891AC908032212
:109B500042EA014009A104F04FFD08F0E5FF044688
:109B600000BF254625B100BF2846FDF707FB00BF13
:109B700000BF70BD348203008C81030045726173A5
:109B80006520626F6E6473210000000070B50646A8
:109B90000D4616B14FF4064070BD287920B101285A
:109BA00009D0022815D111E002202871284609F0B9
:109BB00097FB044610E0284600F040FF044648F2B8
:109BC0000960844201D141F61D5405E041F61D545F
:109BD00002E048F20E6400BF00BF2046DCE770B52B
:109BE00088B005460C461646142103A8FCF757FC1E
:109BF000A07818B901208DF80A0002E0A0788DF84D
:109C00000A002088ADF8080002A80390A07901A9F5
:109C10000AF0FCFDE0790DF105010AF0F7FDE078AE
:109C200008B1012000E000209DF8061060F3C30198
:109C30008DF80610207908B1012000E000209DF881
:109C4000061060F304118DF80610607908B1012048
:109C500000E000209DF8061060F300018DF806106A
:109C6000207A08B1022000E001209DF8061060F380
:109C700042018DF8061001A804906089ADF8140027
:109C8000A089ADF81600E089ADF8180020690790AA
:109C9000324603A92846ABDF08B070BD2DE9F0417C
:109CA0008046002414E01248006800EBC4052878C0
:109CB00005F002FC07466878012800D100E000208A
:109CC000784080F001062878314600F01DFB641CC6
:109CD000084800788442E6DB0748D0E900100023FA
:109CE00059405840014301D00BF046FABDE8F081DD
:109CF000882500208C2500209825002070B504467A
:109D000020793D2802D141F23D0001E04FF4885016
:109D1000054620880022294602F0A2FB70BD000003
:109D200010B50021034803F0F4F9044684F3100051
:109D300010BD00002C3A002070B505460C464FF4CB
:109D4000803000FA04F1284600F0BEFA70BD70B50C
:109D500005460C464FF4A07000EB840086B23146F5
:109D6000284600F049FB70BD2DE9F04704460D463A
:109D700016461F464FF4803000FA05F84FF4A070E5
:109D800000EB85001FFA80F926F07F4641462068E7
:109D900004F0ECFE4146206804F0E2FE49462068EB
:109DA00004F0D7FE32462946206804F0C9FE414639
:109DB000206804F0D8FE1FB14146206804F0D9FEA7
:109DC000BDE8F08710B50446206804F0BEFE10BD63
:109DD0002DE9F04704460D4617466079324941F8AF
:109DE00020706079314901EBC000007968B1082624
:109DF0002F49304A891AC908022242EA01402EA19D
:109E000004F0FAFB3046BDE8F08729882068C0F8E6
:109E1000081500BF94F90420AB78104619460028B5
:109E200008DB4FEA417C4FEA1C68DFF8B0C00CF851
:109E300000800BE04FEA417C4FEA1C69DFF8A0C0CC
:109E400000F00F08A8F104080CF8089000BF00BF4C
:109E500094F90410084600280DDB00BF00BF00F095
:109E60001F0301229A4043099B0003F1E023C3F83A
:109E7000002100BF00BF00BF00BF012061790B4A75
:109E800002EBC10108716079114641F830400026AB
:109E90000749084A891AC908032242EA014011A168
:109EA00004F0AAFB3046AEE7C4250020C8250020F8
:109EB000148203008C81030052544320696E737432
:109EC000616E636520616C726561647920696E6999
:109ED0007469616C697A65642E00000000E400E03A
:109EE00018ED00E05254433A20696E697469616C60
:109EF000697A65642E00000010B5014691F90400EE
:109F0000002807DB00F01F0301229A40024B44099E
:109F100043F8242000BF10BD00E200E070B5054604
:109F20000C4622460221284600F0DAF970BD10B531
:109F300004464FF48271204600F05EFA10BD10B561
:109F400004460021206804F017FE10BD10B5044639
:109F50000421206804F010FE10BD2DE9F84F0446DE
:109F60008846154699464FF4803000FA08FA4FF4B7
:109F7000A07000EB88001FFA80FB25F07F4551465A
:109F8000204600F0A1F9206804F0DFFD06464146B6
:109F9000206804F0CFFD009032464146206804F06E
:109FA000CFFD5946206804F0D4FD314600980BF0EF
:109FB0003DF8012806D1102005F092F95946206895
:109FC00004F0C7FD206804F0C0FD0646314628466F
:109FD0000BF02CF807465146206804F0C4FD012F11
:109FE0000FD16A1C4146206804F0AAFD102005F03C
:109FF00077F9206804F0A9FDB04225D00D20BDE816
:10A00000F88F2A464146206804F09AFD206804F043
:10A010009CFD0646681E31460BF008F807466FF0B7
:10A020007F40A0EB0900B84201D20D20E7E75FB9FD
:10A030006A1C4146206804F083FD206804F085FD19
:10A04000B04201D00D20DAE701225146204600F04F
:10A0500047F90020D3E72DE9F04104460D46288852
:10A060002070010A617002210E46AA783146761CE2
:10A070006254EA783146761C625400BF042E01D146
:10A08000012000E00020074627B900BF0020FDF7AF
:10A0900075F800BF00BF3046BDE8F08170B50646D8
:10A0A0000C4615462B46224600213046FFF70CFC95
:10A0B00070BD00002DE9F84305460E461746984648
:10A0C00069461048006802F02CFF044614B90420C9
:10A0D000BDE8F8831C212046FCF7E1F9012020713E
:10A0E0002560C4F8088008480068B6FBF0F0E0601E
:10A0F000676169460348006802F03DFF09F000F817
:10A100000020E5E70C6503000065030010B5044678
:10A11000D4E90321501828DF10BD0278072A38D26D
:10A12000DFE802F037040712222B340000220A7005
:10A1300030E001220A7003898B818388CB81C26859
:10A140008A6000230B7425E002220A7003898B8148
:10A150008388CB81C2688A60827D062A01D101236F
:10A1600000E000230B7415E003220A70C3888B8182
:10A170000389CB81C2688A600CE004220A70C3881C
:10A180008B810023CB8100228A6003E005220A70C4
:10A1900000E000BF00BF704770B50546002409E02D
:10A1A000064850F8240020B1044850F824102846EE
:10A1B0008847641C042CF3D370BD0000AC3200202F
:10A1C00030B587B004460D462068806808B907B0EE
:10A1D00030BD182101A8FCF762F90295A06806902D
:10A1E000207910B1012815D109E001208DF8040073
:10A1F00020690390E0680490606905900BE00220FC
:10A200008DF804000749E0680968484303906069D5
:10A21000059000E000BF00BF2068816801A8884762
:10A2200000BFD4E700650300F0B585B005460C46D5
:10A230001646002C3ED0112C3CD0082C3AD00D2CC8
:10A2400024D11D491D4A891AC908022242EA014047
:10A250002A461B4904F0DAF92A460321684602F02F
:10A260006FFC2EB1307800F0010008B1012000E051
:10A2700002208DF8080000218DF80C1041F2011128
:10A28000ADF80A10684600F025F913E0204604F006
:10A2900073FF07460849094A891AC908012242EA98
:10A2A00001402B463A46074904F0BCF921462846AE
:10A2B0000AF004F805B0F0BDD48103008C810300DE
:10A2C000507803006079030070B504460D462946B6
:10A2D000206804F045FC2946206804F047FC70BD66
:10A2E00070B504460E4615463146206804F03BFC26
:10A2F0001DB13146206804F03CFC70BD10B5044629
:10A30000204600F0E7F810BDF8B505460C46284693
:10A310000AF078FD05286AD2DFE800F003212A3927
:10A320003F00DCB1012128460AF07CFD00200090AE
:10A330006846FDF7A5F82A4601260027304639462B
:10A34000FCF781F82B4AD2E9003218431143294A1D
:10A3500003C29DF80000FDF799F800BF47E00CB17B
:10A36000022000E00020014628460AF05BFD3EE0A6
:10A3700044B1032128460AF055FD012128460BF07F
:10A380002BFB03E0012128460AF04CFD2FE01CB90D
:10A39000042128460AF046FD29E024B1032128467D
:10A3A0000AF040FD22E0002128460AF03BFD002192
:10A3B00028460BF011FB002000906846FDF760F87E
:10A3C0002A460126002730463946FCF73CF80A4663
:10A3D000C143D043074B0CCB11401840054AC2E99A
:10A3E00000109DF80000FDF751F800BF00BF00BF4E
:10A3F000F8BD00009825002070B505460C46286879
:10A40000015929B12146286804F0A3FB012070BD41
:10A410000020FCE770B50446608801F007FCA080CE
:10A42000002505E0044850F82510204688476D1C9B
:10A43000002DF7D070BD00005024002070B50446F8
:10A44000A08801F023FB6080002505E0044850F857
:10A450002510204688476D1C002DF7D070BD0000E8
:10A460006424002070B50546002405E0044850F837
:10A47000241028468847641C022CF7D370BD0000C6
:10A480008462030070B50546002405E0054850F8D5
:10A49000241028468847641C034800788442F5DB72
:10A4A00070BD0000FC3000209224002070B50446EE
:10A4B000608801F0BBFBA080002505E0044850F84F
:10A4C0002510204688476D1C002DF7D070BD000078
:10A4D0002C63030070B50546002405E0044850F8DD
:10A4E000241028468847641C002CF7D070BD00005B
:10A4F000A463030010B586B00446142101A8FBF73D
:10A50000CEFFA08900F0B4FAADF808002078062844
:10A510005ED2DFE800F05D0304052E4A00BF00BFF5
:10A52000A08900F0AAFA18B9E08908F0FAFFF8B19A
:10A53000E08908F0F3FF8DF80C002078032801D1A2
:10A54000012100E000218DF80D10A16804916068E0
:10A5500030B908208DF8040001218DF8141004E0B2
:10A5600009208DF804006168059101A806F0C0FF7C
:10A570002FE0A08900F081FAB0B1E089A0B960684D
:10A5800038B90A208DF80400BDF8080007F000FA79
:10A5900004E00B208DF8040060680390012011494D
:10A5A000087001A806F0A4FF13E0606818B9132032
:10A5B0008DF8040004E014208DF804006068039016
:10A5C0004FF6FF70ADF8080001A806F091FF00E01B
:10A5D00000BF00BF0348007808B107F01FF906B0BC
:10A5E00010BD00007124002038B5054610480078E1
:10A5F00010B948F2016038BD4FF6FF70854202D1B4
:10A6000048F20360F7E7684608F05AFC044614B9BC
:10A6100048F20760EFE70520207001202071E580F7
:10A62000684608F05DFC08F05FFD0020E3E70000ED
:10A63000D025002038B50E48007810B948F20160E6
:10A6400038BD684608F03CFC044614B948F207607F
:10A65000F6E706202070684608F042FC05480078BE
:10A6600010B101200349087308F03EFD0020E7E720
:10A67000D02500208033002070B586B0142101A8B9
:10A68000FBF70DFF2E48007828B101A8FFF784FDE5
:10A69000002006B070BD2A48001D02F0FCFC08B185
:10A6A0000020F6E700F098FA06460EB13046F0E7D3
:10A6B00008F042FC06F050FC054625B1022D03D0FF
:10A6C000062D0ED103E000BF48F20A60E1E7012049
:10A6D0001B4908700020486001A8FFF75DFD0020BD
:10A6E000D7E700BF00BF684608F0EAFB044614B98C
:10A6F00048F20760CDE7012020700C2D16D2DFE86C
:10A7000005F01506150715111512150A0E0B00BFD9
:10A71000002020710BE000BF0320207107E0022021
:10A72000207104E000BF0120207100E000BF00BFE5
:10A73000684608F0D5FB08F0D7FC0020A9E7000028
:10A74000D025002038B5044614B948F2046038BD5D
:10A750006946204608F0E2FD08B3BDF8000000EBB2
:10A760008000114901EB8000C068A8B1A07A98B1BF
:10A77000BDF8000000EB800001EB8000C068401EC7
:10A78000BDF8001001EB8101074A02EB8101C860AE
:10A790000020A072002504E048F2056501E048F2BF
:10A7A00009652846D3E70000583300207FB51446DA
:10A7B0001D462B46224601A9684608F047FD04B015
:10A7C00070BD37B50C4615462B462246694600201B
:10A7D00008F03CFD3EBD37B50C4615462B462246DB
:10A7E0000021684608F032FD3EBD024602B111B9B3
:10A7F00048F204607047106808600020FAE7000023
:10A80000F8B504460D4604B115B948F20460F8BD28
:10A810006946204608F082FDA0B16668BDF80010C8
:10A8200001EB8101094A02EB810101F10C000121D8
:10A8300002F038FC2E6060680C3068600120A07265
:10A840000020E4E748F20960E1E700005833002007
:10A8500070B504460D4614B948F2046070BD032378
:10A860000022294620460BF051FBF7E770B504465D
:10A870000D4602230022294620460BF047FB70BDFF
:10A8800070B5054609480068042802D148F20B64F7
:10A8900009E007480549096840F8215001210348AB
:10A8A00002F000FC0024204670BD0000DC250020E2
:10A8B000AC3200202DE9F84304464FF480680026AE
:10A8C0002B48007818B948F20160BDE8F88314B944
:10A8D00048F20460F9E712212046FBF7E0FD03206F
:10A8E000208000253FE005EB8500224901EB800038
:10A8F000008905EB85011F4A02EB81014989084463
:10A9000087B205EB850102EB8101486806F0A0FAE9
:10A91000032802D12088401E2080608805EB850135
:10A92000144A02EB8101C96808446080208905EB64
:10A93000850102EB810149890844208160893844FE
:10A940006081C7F5806086B2A089B04200DAA68136
:10A9500004F11000831EA21D211D0090284608F05E
:10A9600033FE681C85B2022DBDDB0020ADE7000080
:10A97000D0250020583300202DE9FE4307460C4621
:10A98000207E80B3E06970B3002528E0E06900EB29
:10A99000C506002002909DF8080020F00200801CEF
:10A9A00002909DF8080020F008000830029005EBA6
:10A9B000850107F1E00000EB4100311DCDE90010F9
:10A9C0003288B31C02A9384608F05AFE8046B8F116
:10A9D000000F02D04046BDE8FE83681CC5B2207E51
:10A9E000A842D3DC00BF0020F5E770B504460D4651
:10A9F0002A460021204600F00EF8A068401CA06006
:10AA000070BD01468A68C868801A704701468A6826
:10AA1000C868801A704710B583680B448488234047
:10AA20000468E35C137010BDC26883881A40036831
:10AA30009954C268521CC260704700003EB504467B
:10AA40000A4B6A460021A01D08F000FC054635B9F6
:10AA5000064A9188019808F0DBFC054603E00348AC
:10AA600000210160416028463EBD0000EC25002029
:10AA70000146A1F5404080B270470146B1F5404F14
:10AA800005DB4FF6FE70814201DC0120704700209B
:10AA9000FCE710B504462078182802D1FDF756FAD5
:10AAA000207010BD10B504462078182802D1FDF79B
:10AAB0004DFA207010BD70B505460E46144624B1FF
:10AAC0003146284602F0CAFA03E03146284602F031
:10AAD00060FA70BD30B504461088C01C984201D998
:10AAE0000C2030BD0220158848551088401C10806D
:10AAF0000120158848551088401C108015884C5539
:10AB00001088401C10800020EBE770B504460D460D
:10AB100040F21442115B0122D4F81004FCF788FFC4
:10AB2000064606B1357004F13C0204F5826104F179
:10AB3000540072DF70BD00002DE9F04106460C465E
:10AB400015460027112C01D1012700E0002765B12F
:10AB50003A460A4801783046FDF71CFA00220848B8
:10AB600001783046FDF716FA05E03A4604480178C8
:10AB70003046FDF70FFABDE8F081000067250020A0
:10AB80006425002010B54FF4405400F009F8034943
:10AB9000086108460069001BC86010BD94260020AB
:10ABA00010B540F6F8700068401C18B94FF010203E
:10ABB000406902E040F6F870006803464FF08050AC
:10ABC00001694269581C08B1184601E002FB01F016
:10ABD0000446204610BD000010B5FFF7D3FF002249
:10ABE0000249034802F0FEFE10BD0000106503009C
:10ABF00094260020F7B50D4617460DB90020FEBD7E
:10AC00000026009868B1002409E02146684602F059
:10AC100016FA18B1A0B23946A847761C641C142C49
:10AC2000F3D33046EBE710B50446606808F0B2F99C
:10AC300010BD00003EB500BF9DF8000020F00F00E1
:10AC4000401C00909DF8000020F0F00010300090B3
:10AC500000BF0F221BA168467CDF044600BF2546CB
:10AC600025B100BF2846FCF789FA00BF00BF40F2BB
:10AC7000C13078DF044600BF254625B100BF284615
:10AC8000FCF77CFA00BF00BF00200190029050202A
:10AC9000ADF80400A020ADF806000020ADF80800D3
:10ACA0004FF4C870ADF80A0001A87ADF044600BF6F
:10ACB000254625B100BF2846FCF760FA00BF00BF5B
:10ACC0003EBD00004E6F726469635F54656D706CC9
:10ACD0006174650070B50021064802F0B3FA0446BD
:10ACE00000BF254625B100BF2846FCF747FA00BF44
:10ACF00000BF70BDA826002070B5054615B14FF401
:10AD0000064070BD1848007B18B100201649087332
:10AD100001E000F0DFF81448007808281DD2DFE8D1
:10AD200000F01C04080C101C141800F03FF8044636
:10AD300016E000F0BDF8044612E000F099F8044671
:10AD40000EE000F047F804460AE000F035F904464A
:10AD500006E000F043F9044602E048F20E6400BF4A
:10AD600000BF2046CDE70000803300200D48008959
:10AD7000401C0C49088100204880087300BF0DE08A
:10AD800000EB8001084A12F8211009B9012200E005
:10AD9000002204490A310A54411C88B20228EFDB20
:10ADA00070470000803300205833002010B5084859
:10ADB00000F036F840B900200549891E0870488027
:10ADC000486041F61D5010BD00F072F8FBE700002E
:10ADD0008233002070B50F48458805EB85000E4989
:10ADE00001EB8000C06878B904200A49087005EBBF
:10ADF0008500094A02EB80000023012241680748D0
:10AE000002F038FD044602E000F090F804462046C7
:10AE100070BD0000803300205833002094260020AD
:10AE200010B501460022002018E00F4B1B5C9BB1BF
:10AE300000240D4B1C5400EB80030C4C04EB8303EB
:10AE4000DB684BB900EB800304EB83031B7C012B15
:10AE500002D10880012203E0431C98B20228E4DBFF
:10AE600000BF104610BD00008A3300205833002078
:10AE7000F8B50C4844680C4800680B49898800EB19
:10AE800081056088C01C86B2032006490870002036
:10AE9000B3000090084629464268044802F062FE6A
:10AEA000F8BD000080330020E42500209426002017
:10AEB00010B507494888091D08F06EFA18B1FFF768
:10AEC000D7FF044602E0FFF785FF0446204610BD89
:10AED0008033002010B514480078082820D2DFE81D
:10AEE00000F0041F1F0A1016171BFFF73FFF012079
:10AEF0000D49087015E000F07DF802200A4908703D
:10AF00000FE000F029F806200749087009E000BFAB
:10AF100007200549087004E001200349087000E09B
:10AF200000BF00BF10BD00008033002010B5052019
:10AF3000064908700220064988800846002301223D
:10AF40000168044802F096FC10BD00008033002028
:10AF5000E4250020942600201449086814494988F3
:10AF600001EB8101134A02EB810149680F4A11602C
:10AF70000F49498801EB81010E4A02EB81014860CB
:10AF80000A4989880A4A528802EB8202094B03EB7C
:10AF9000820211810221054A91800021044A5288CF
:10AFA00002EB820203EB820211747047E425002059
:10AFB000803300205833002010B506200549087062
:10AFC000498801EB8101044A02EB8101486805F0E0
:10AFD000A1FF10BD803300205833002010B507209A
:10AFE000034908700020486005F0A4FF10BD000070
:10AFF00080330020054A50684288D21C91B2044A2E
:10B0000092880A44024B9A807047000080330020E7
:10B01000E42500202DE9F04186B00446A68820886A
:10B0200050282ED004DC352836D0362808D189E0C7
:10B03000522802D05428F9D103E0304601F058FAE2
:10B04000B9E01422634901A8FBF710FAADF80660D5
:10B05000304600F0EBFDADF80800BDF8080000F048
:10B060003BFA00225C4801783046FCF793FF00224F
:10B070005A4801783046FCF78DFF01A8FFF7CAF95E
:10B0800099E0A01DFEF776F928B10121304601F0C4
:10B0900091FA0AF01DFC8EE00027A68804F10A054B
:10B0A0004F4801783046FCF75FFF00B983E000228B
:10B0B0004B4801783046FCF76DFFE088B0F5857F9E
:10B0C0003AD0E08858B1E2884649474BC91AC908C6
:10B0D000022343EA014045A103F098FA2CE02888B6
:10B0E00001280AD02A883F493F4BC91AC9080223C0
:10B0F00043EA01404CA103F089FA688801280BD08B
:10B100006A883849384BC91AC908022343EA014002
:10B1100054A103F07BFA0FE0A98800223046A1DF9A
:10B120008046B8F1000F06D1012701225C48017862
:10B130003046FCF72FFF00BF1FB90021304609F051
:10B14000FFFE38E00027A68804F10A05544801787C
:10B150003046FCF709FF00B92DE000225048017885
:10B160003046FCF717FFE08858B1E2881D491E4BB6
:10B17000C91AC908022343EA01401CA103F046FA98
:10B1800014E0A88801280BD0AA881649164BC91AC2
:10B19000C908022343EA014032A103F037FA05E06F
:10B1A000A87908B1012000E0002007463946304662
:10B1B00009F0C6FE00BF00BF00BF002239493A486F
:10B1C0000078FCF763FE00BF09F026F906B0BDE881
:10B1D000F0810000586203005F2400205E240020FC
:10B1E000612400208C8103008C810300556E6578FA
:10B1F00070656374656420474154542073746174AE
:10B200007573207768696C652067657474696E670B
:10B210002043415220636861722076616C75653A03
:10B2200020307825780000004D756C7469706C656D
:10B23000202825642920434152206368617261639C
:10B2400074657269737469637320666F756E642CBC
:10B25000207573696E6720746865206669727374FF
:10B260002E000000556E6578706563746564204338
:10B2700041522063686172616374657269737469B5
:10B28000632076616C7565206C656E677468202834
:10B290002564292C2073746F726520302E00000005
:10B2A00062240020217602005D24002010B50446AF
:10B2B000207858B9608801F01BF9608809F09CF883
:10B2C0006088FEF721F80AF003FB00E000BF00BF32
:10B2D00010BD000010B500F087FEFCF737FE2A49CC
:10B2E0000870FCF733FE29490870FCF72FFE284947
:10B2F0000870FCF72BFE27490870FCF727FE26494B
:10B300000870FCF723FE25490870FCF71FFE24494E
:10B3100008701D480078182817D01C480078182895
:10B3200013D01B48007818280FD01A480078182826
:10B330000BD019480078182807D01848007818282A
:10B3400003D00846007818280BD11649164A891AE6
:10B35000C908012242EA0140144903F04DF90320D3
:10B3600010BD00BF00201249086000BF00BF00BF31
:10B3700000BFBFF35F8F00BF00BF00BF00BF012051
:10B380000C4908700020EBE75C2400205D240020BD
:10B390005E2400205F24002060240020612400201F
:10B3A000622400208C8103008C810300106803005C
:10B3B00058240020542400207CB504462078082816
:10B3C00040D1607A00283DD1207A012814D0072886
:10B3D00002D0082834D12BE0A08800F057FB0546A6
:10B3E0004FF6FF70854206D00121284601F0E2F8B1
:10B3F0002846FDF789FF24E0A0886A46012105F070
:10B400006BFF06469EB90198007880B1A08800F0D5
:10B410003DFB05464FF6FF70854207D001220B48E1
:10B4200001782846FCF7B6FD08F0F6FF00BF08E0FB
:10B4300007480068012802D1054803F003FB00E03B
:10B4400000BF00BF0AF044FA7CBD00005E2400206B
:10B450005824002070B50B48FEF7B4FC0A4B0CCB07
:10B46000841843F10005094903C9201A75EB01004E
:10B4700004D24FF08073E41845F1000520462946B8
:10B4800070BD0000A0250020B0250020B8250020B8
:10B490002DE9F04104468846E0B2FDF7EDFE054691
:10B4A000287804F009F807466878012800D100E000
:10B4B0000020784080F001064EB10648D0E9001027
:10B4C000002359405840014301D109F055FEBDE821
:10B4D000F0810000982500201CB50446044903C9EA
:10B4E000CDE9000100226946204606F003F91CBDA3
:10B4F0007C62030010B500F07DFD01200149087059
:10B50000002010BD682400202DE9FC470546284690
:10B5100000F08CFB06460027B8464FF003094FF0B9
:10B52000010A4FF6FF7086420DD06A460821304668
:10B5300005F0D2FE044634B90198871DB0F80480A6
:10B54000D0F8009000BF00BF4B464246394628461F
:10B55000B1DF0446042C01D1112422E0082C01D1D2
:10B5600000241EE00B2C1CD14FF0000A09F0020051
:10B5700010B14FF0010914E017B9B8F1000F04D071
:10B580000027B8464FF003090BE00A490A4A891A16
:10B59000C908012242EA01402A46084903F036F868
:10B5A00003240B2CD0D0BAF1000F00D10B2420467D
:10B5B000BDE8FC87948103008C810300D86A0300F6
:10B5C0002DE9FC5F8046404600F030FB06464FF612
:10B5D000FF70864203D143F20200BDE8FC9F4FF0AA
:10B5E00001094FF0000A00BF4FF0000A4A46511C03
:10B5F0001FFA81F96B460821304605F0CFFE04465C
:10B60000002C31D1019D032028602A1DA91D404630
:10B610002B68B2DF044634B932460821304605F0C3
:10B6200045FF04461FE00C2C02D14FF0010A02E056
:10B63000052C00D100240821304605F027FF0746DD
:10B6400087B1384603F098FD83460C490C4A891AA5
:10B65000C908012242EA01405B463246094902F02C
:10B66000E1FF032400BF02E0072C00D10C24BAF153
:10B67000000FB9D100BF2046AFE70000948103005E
:10B680008C810300586A030010B504460448008802
:10B690004FF6FF71884201D008F0CAFE10BD0000CD
:10B6A0006A240020FEB5044602A80190204600F05E
:10B6B000BDFA06466A460121304605F00DFE0546F4
:10B6C0000DB10020FEBD01980078FBE72DE9F041A7
:10B6D00005464FF6FF761648B3DF04468CB1204688
:10B6E00003F04AFD07461349134A891AC908012283
:10B6F00042EA01403A46114902F088FF0320BDE8C2
:10B70000F08100BF4FF6FF72094801882846AFDF7D
:10B71000044643F20300844204D105480088401CDB
:10B720000349088043F203008442EBD02046E6E759
:10B730006C240020948103008C8103000C6A0300B8
:10B7400070B504460D46204600F01DF8A84201D908
:10B75000022070BDA0884FF6FF71884204D0208877
:10B7600010B1A068401C08B90120F2E70020F0E702
:10B77000024613468B4204D21868401C08B10120CF
:10B7800070470020FCE701464A8801F10C0000EBFD
:10B790008200704730B589B004460D4600200890FD
:10B7A00020216846FAF77BFE42F64C20ADF80000F7
:10B7B0000120ADF804009DF80D0020F00400001DEC
:10B7C0008DF80D008DF812500120ADF8060008A884
:10B7D0000290208904F5B7726946FDF739FE09B079
:10B7E00030BD70B58AB004460D4605F1300109A898
:10B7F000FEF731FC0646202101A8FAF750FE42F67A
:10B800004A20ADF80400ADF808609DF8110020F062
:10B810000200801C8DF811003420405D8DF8150069
:10B82000ADF80A6009A80390208904F5B37201A954
:10B83000FDF70EFE0AB070BDF0B593B02E480021A2
:10B84000016041600446012020800020A070012199
:10B85000E1700221A171617102202071032748214A
:10B8600001A8FAF71CFE2548019025480290012006
:10B870008DF80C0000208DF80D0001208DF80E00D1
:10B880002046049000208DF8140006908DF81C00CE
:10B8900008900D21ADF828101A48099040F20110C7
:10B8A000ADF8340000218DF836108DF83770002087
:10B8B0008DF83A000F9002218DF830108DF8381075
:10B8C0008DF8481002208DF846008DF840008DF864
:10B8D00041008DF8420001A90B48FCF7C0FD054668
:10B8E00000BF2E4626B100BF3046FBF747FC00BF25
:10B8F00000BF13B0F0BD0000122400208D0503002E
:10B90000934603001A2400205822002010B502F0AC
:10B9100071FC08B903F0C2F810BD3EB504460D46EF
:10B9200020780221B1EB500F01D000203EBDB4F8C9
:10B930000100ADF80800E0788DF80A00A188ADF8A4
:10B940000010A0798DF8020001AA69462846FBF78D
:10B950000DFB032201A902A8FAF7B3FD08B90120E3
:10B96000E4E70020E2E7000070B504460D46142C21
:10B9700003DA2046FCF724FB10B943F2020070BD45
:10B9800004EB8400054901EB4000D0F80210296067
:10B99000C188A980007AA8710020F0E7642E0020F9
:10B9A00030B591B005462888102801D011B030BDBF
:10B9B0002C22291D06A8FAF759FD4FF6FF749DF8B1
:10B9C0001C000321B1EB500F35D005F03DFE9DF872
:10B9D0001C00400820B1012803D0022828D114E01F
:10B9E00000BF09E0049800F1110107A8FBF7A6F9D0
:10B9F00010B1BDF8144006E003AA05A9072005F020
:10BA0000EDFD0028EED100BF13E008E00498411CD2
:10BA100007A8FFF782FF10B1BDF8144006E003AAA3
:10BA200005A9072005F0DAFD0028EFD100BF00E0EE
:10BA300000BF00BF00BFBDF8180000EB8000124936
:10BA400021F81040BDF8180000EB800001EB400029
:10BA50000799C0F80210BDF82010C1809DF822108F
:10BA600001724FF6FF7084420CD0BDF81800ADF89B
:10BA70000600ADF8084000208DF8040001A8FEF78C
:10BA8000F1FC00BF00BF91E7642E002070B50546B1
:10BA90004FF6FF70854200D170BD00240EE004EB2C
:10BAA0008400094931F81000A84205D12046FCF76E
:10BAB00087FA08B12046EFE7601C84B2142CEEDB55
:10BAC0004FF6FF70E8E70000642E00203EB5054603
:10BAD0000C4605F0B9FD0BE0BDF80800A04207D008
